:100000000C947D000C94D6090C94D6090C94D60956
:100010000C94D6090C94D6090C94D6090C94D609E4
:100020000C94D6090C94D6090C94D6090C94D609D4
:100030000C94D6090C94D6090C94D6090C94D609C4
:100040000C94D6090C94D6090C94D6090C94D609B4
:100050000C94D6090C94D6090C94D6090C94D609A4
:100060000C94D6090C94D6090C94D6090C94D60994
:100070000C94D6090C94D6090C94D6090C94D60984
:100080000C94D6090C94D6090C94D6090C94D60974
:100090000C94D6090C94D6090C94D6090C94D60964
:1000A0000C94D6090C94D6090C94D6090C94D60954
:1000B0000C94D6090C94D6090C94D6090C94D60944
:1000C0000C94D6090C94D6090C94D6090C94D60934
:1000D0000C94D6090C94D6090C94D6090C94D60924
:1000E0000C94D6090C94D6090C94D6090C94D60914
:1000F0000C94D6094000402F8000809101108F7C25
:10010000806080688093011011241FBECFEFCDBFA7
:10011000DFE7DEBFE4EFF0E040E019C0B791A79160
:1001200037912791079107FD0EC097918791EF01B5
:10013000F92FE82F0BBF07900D92A217B307D9F73D
:10014000FE011BBE04C01D92A217B307E1F7E93FF1
:10015000F40721F70E9456040C947D09F894FFCF10
:100160002F923F924F925F926F927F928F929F92C7
:10017000AF92BF92CF92DF92EF92FF920F931F93B5
:10018000CF93DF93CDB7DEB7C454D109CDBFDEBF67
:100190006CA77DA78EA79FA7098B1A8BEB8AFC8A79
:1001A000CD8ADE8AAF8AB88EA12CB12CBA2CA92CAC
:1001B000982C882469017A01C818D908EA08FB0834
:1001C000C982DA82EB82FC8226013701770C44086F
:1001D000542C32016B960EAD1FAD6B97A02EB12E35
:1001E000C12CD12CE12CF12C00E010E029813A81C6
:1001F0004B815C81642D742D842D942D0E94F30617
:1002000007E10E94CF08822E932EA42EB52E9501D1
:1002100084010053184F2F4F3F4F09871A872B87B0
:100220003C87003D1740210531050CF0C9C1A9806C
:10023000BA80CB80DC80E42CF42C042D142D2A2DE4
:100240003B2D4C2D5D2D642D742D842D942D0E94FD
:10025000F306A22EB32EC42ED52EE62EF72EE82FAF
:10026000192F01E00E94ED080E2F0E94910901E272
:100270000E94CF08298F3A8F4B8F58AB69AB7AAB6E
:100280008BAB9CABA984BA84CB84DC84DD0CAA083C
:10029000BA2C6501AD86BE86CF86D88A29853A8577
:1002A0004B855C856D85762F862F962F205D374098
:1002B000410951096109710981099109722E832E41
:1002C000942E452E562E672E282E392E02E00E949F
:1002D000ED08A22EB32EC42ED52EE62EF72EE82F33
:1002E000192F04E00E94ED080E2F0E949A09A72CF6
:1002F000B82CC92CD42CE52CF62C022D132D0E94E1
:100300009109A22EB32EC42ED52EE62EF72E082F3D
:10031000192F272D382D492D542D652D762D822D01
:10032000932D0E94F306F22E032F142F5C8F6D8FF6
:100330007E8F8F8F98A3A0E00E9466095CF4AFE0E7
:100340000E945A09F22E032F142F5C8F6D8F7E8F1F
:100350008F8F98A32F2D302F412F5C8D6D8D7E8D2B
:100360008F8D98A104E00E94CF082DAB3EAB4FAB20
:1003700058AF69AF7AAF8BAF9CAF2C8F3D8F4E8F4C
:100380005F8F68A379A38AA39BA3272D382D492DBE
:10039000542D652D762D822D932D02E00E94ED08BF
:1003A000A22EB32EC42ED52EE62EF72EE82F192F0F
:1003B00003E00E94ED080E2F0E949A09A72CB82C8A
:1003C000C92CD42CE52CF62C022D132D0E9491095A
:1003D000A22EB32EC42ED52EE62EF72E082F192FBF
:1003E000272D382D492D542D652D762D822D932DB9
:1003F0000E94F306F22E032F142FB52FF62FE72FAE
:10040000582E692EA0E00E9466095CF4AFE00E94BD
:100410005A09F22E032F142FB52FF62FE72F582E3F
:10042000692E2F2D302F412F5B2F6F2F7E2F852D83
:10043000962D04E00E94CF082DAF3EAF4FAF21961E
:100440005FAF219722966FAF229723967FAF2397B6
:1004500024968FAF249725969FAF25972CA33DA375
:100460004EA35FA368A779A78AA79BA7C984DA844C
:10047000EB84FC8404E2C0160AEFD0060FEFE0061E
:10048000F0060CF0D8C029853A854B855C856D85D2
:10049000762F862F962F24523A4F4F4F5F4F6F4F34
:1004A0007F4F8F4F9F4F622E732E842E952E562E88
:1004B000472E382E292E04E00E94ED08A62CB72CDA
:1004C000C82CD92CE52CF42C032D122D0E94910957
:1004D000A22EB32EC42ED52EE62EF72E082F192FBE
:1004E000262D372D482D592D652D742D832D922DB8
:1004F0000E94F306A22EB32EC42ED52EE62EF72E82
:10050000082F192F2DA93EA94FA958AD69AD7AAD75
:100510008BAD9CAD0E9491092C8F3D8F4E8F5F8FCC
:1005200068A379A38AA39BA3262D372D482D592D87
:10053000652D742D832D922D03E00E94ED08A62CCD
:10054000B72CC82CD92CE52CF42C032D122D0E948D
:100550009109A22EB32EC42ED52EE62EF72E082FEB
:10056000192F262D372D482D592D652D742D832DAE
:10057000922D0E94F306A22EB32EC42ED52EE62E67
:10058000F72E082F192F2DAD3EAD4FAD21965FAD43
:10059000219722966FAD229723967FAD23972496BD
:1005A0008FAD249725969FAD25970E9491092CA386
:1005B0003DA34EA35FA368A779A78AA79BA73BC0CB
:1005C000A980BA80CB80DC80E42CF42C042D142D7F
:1005D0002A2D3B2D4C2D5D2D642D742D842D942DB5
:1005E0000E94F306A22EB32EC42ED52EE62EF72E91
:1005F000E82F192F02E00E94ED080E2F0E949109AA
:1006000006E20E94CF08298F3A8F4B8F58AB69AB17
:100610007AAB8BAB9CAB1CA21DA21EA21FA218A67C
:1006200019A61AA61BA61C8E1D8E1E8E1F8E18A222
:1006300019A21AA21BA269857A858B859C850E94C6
:10064000FE076B017C01298D3A8D4B8D58A969A954
:100650007AA98BA99CA90E94BF099B01AC01C70183
:10066000B6010E94A30920E030E048EC52E40E9469
:10067000CB09609327407093284080932940909342
:100680002A402B893C894901392D40E050E060E047
:1006900070E080E090E001E10E94ED08822E932E50
:1006A000A42EB52EC62ED72EF82FE92FAF89B88DE0
:1006B00029813A814B815C810E9472097B018C0106
:1006C000689415F815950795F794E7941694D1F763
:1006D0002B013C01770C4408542C3201282D392D74
:1006E0004A2D5B2D6C2D7D2D8F2F9E2FAE2CBF2C78
:1006F000C02ED12EE42CF42C042D142D0E9491092F
:10070000822E932E49875D876B8B7F8B898F9A8F83
:10071000A988BA88A5012A2D352F40E050E060E075
:1007200070E080E090E000E10E94ED08A22EB32E80
:10073000C42ED52E262E372EF82FE92FAD89BE894F
:1007400029813A814B815C810E9472097B018C0175
:10075000689416F815950795F794E7941694D1F7D1
:100760002B013C01770C4408542C32012A2D3B2DDF
:100770004C2D5D2D622D732D8F2F9E2FAE2CBF2CF7
:10078000C02ED12EE42CF42C042D142D0E9491099E
:100790002983398B4D8B5B8FB62FA72FF82FE92F2D
:1007A000282D392D49855D856B897F89898D9A8DA5
:1007B000AC8CBD8CCE8CDF8CE8A0F9A00AA11BA16B
:1007C0000E949A09522E632E742E852E962E472E45
:1007D000382E292E298139894D895B8D6B2F7A2FEF
:1007E0008F2F9E2FACA0BDA0CEA0DFA0E8A4F9A4BF
:1007F0000AA51BA50E949A09CCA4DDA4EEA4FFA41F
:1008000056016701E12CF12C8701A982BA82CB82C3
:10081000DC82ED82FE820F831887A22EB32EC42EB7
:10082000D52EE62EF72E082F192F29813A814B81DC
:100830005C8160E070E080E090E00E94F30605E1FA
:100840000E94CF08A52CB62CC72CD82CE92CF42C50
:10085000032D122D0E949A090FE00E94CF080E94DA
:10086000BF0920E030E048EC52E40E94CB096093DD
:100870001040709311408093124090931340CC5BD2
:10088000DF4FCDBFDEBFDF91CF911F910F91FF9062
:10089000EF90DF90CF90BF90AF909F908F907F9020
:0C08A0006F905F904F903F902F90089554
:1008AC000E944D096EE186E70E9406096EEF80E416
:1008BC000E94060962EA86E70E94060940910740F9
:1008CC006091224086E70E946808809302409093D2
:1008DC00034064EA86E70E94060940910740609154
:1008EC00224086E70E94680880930E4090930F4048
:1008FC0066EA86E70E940609409107406091224013
:10090C0086E70E94680880930C4090930D4068EA3B
:10091C0086E70E940609409107406091224086E7D5
:10092C000E946808809325409093264068EA86E7E9
:10093C000E940609409107406091224086E70E9480
:10094C00680880932340909324406CEA86E70E94C9
:10095C000609409107406091224086E70E94680892
:10096C00809317409093184068E486E70E9406092C
:10097C008FE19EE40197F1F700C0000060E086E78C
:10098C000E940609E4E1F0E420814181628186E75E
:10099C000E94430760932B4070932C4080932D4012
:1009AC0090932E4068E586E70E9406098FE19EE44D
:1009BC000197F1F700C0000060E086E70E9406098D
:1009CC00E4E0F0E420814181628186E70E944307E4
:1009DC006093194070931A4080931B4090931C4075
:1009EC00E0911740F0911840809023409090244063
:1009FC00A0902540B0902640C0900C40D0900D4067
:100A0C00E0900E40F0900F40009102401091034096
:100A1C002091194030911A4040911B4050911C403C
:100A2C0060912B4070912C4080912D4090912E40E4
:100A3C00FF93EF930E94B00067EE80E40E94BF0723
:100A4C00EDE1F0E400812181428165EE80E40E94B9
:100A5C003C05809300409093014080910040909120
:0C0A6C0001400E94AF080F900F9024CFB3
:100A7800CF92DF92EF92FF92CF93DF939091050987
:100A880090FFFCCF982F990F909307099091050933
:100A980096FFFCCF609308099091050996FFFCCF5B
:100AA800E0E0F9E094819160948390E0880F991FC9
:100AB80081608783809105098823E4F72FEF83EF0E
:100AC80091E0215080409040E1F700C00000E0E054
:100AD800F9E0608582E08483809105098823E4F742
:100AE800E0E0F9E0908582E084838091050988231D
:100AF800E4F7E0E0F9E0808587E08483848183601F
:100B0800848370E0762F6627EB01C92B209127405C
:100B1800309128404091294050912A4060E070E08F
:100B280088EC91E40E94A3092AE939E949E15EEBDE
:100B38000E94CF096B017C01BE0180E090E00E9419
:100B4800FC07A70196010E94A4090E943908CB015D
:0E0B5800DF91CF91FF90EF90DF90CF90089546
:100B660010C00E94B10958F00E94AA0940F029F469
:100B76005F3F29F00C94C50951110C94B9090C94E6
:100B8600D3090E948D0868F39923B1F3552391F395
:100B9600951B550BBB27AA2762177307840738F0E6
:100BA6009F5F5F4F220F331F441FAA1FA9F335D043
:100BB6000E2E3AF0E0E832D091505040E695001CF7
:100BC600CAF72BD0FE2F29D0660F771F881FBB1FB1
:100BD600261737074807AB07B0E809F0BB0B802D8F
:100BE600BF01FF2793585F4F3AF09E3F510578F0BB
:100BF6000C94C5090C94B9095F3FE4F3983ED4F30D
:100C0600869577956795B795F7959F5FC9F7880F8E
:100C1600911D9695879597F90895E1E0660F771FE0
:100C2600881FBB1F621773078407BA0720F0621B71
:0E0C3600730B840BBA0BEE1F88F7E095089540
:100C44000FC00E94AA0938F00E94B10920F0952330
:100C540011F00C94C5090C94D30911240C94B9090E
:100C64000E948D0870F3959FC1F3950F50E0551FB6
:100C7400629FF001729FBB27F00DB11D639FAA27ED
:100C8400F00DB11DAA1F649F6627B00DA11D661F3C
:100C9400829F2227B00DA11D621F739FB00DA11D5D
:100CA400621F839FA00D611D221F749F3327A00D17
:100CB400611D231F849F600D211D822F762F6A2FB3
:100CC40011249F5750409AF0F1F088234AF0EE0F18
:100CD400FF1FBB1F661F771F881F91505040A9F745
:100CE4009E3F510580F00C94C5090C94B9095F3FEF
:100CF400E4F3983ED4F3869577956795B795F79581
:100D0400E7959F5FC1F7FE2B880F911D96958795F8
:040D140097F90895AE
:100D180011C00E94AA0938F00E94B10920F039F4E4
:100D28009F3F19F426F40C94D3090EF4E095E7FBE1
:100D38000C94C509E92F0E948D0858F3BA17620769
:100D480073078407950720F079F4A6F50C94B80981
:100D58000EF4E0950B2EBA2FA02D0B01B9019001CE
:100D68000C01CA01A0011124FF27591B99F0593F12
:100D780050F4503E68F11A16F040A22F232F342F5A
:100D88004427585FF3CF469537952795A795F040A8
:100D98005395C9F77EF41F16BA0B620B730B840BBD
:100DA800BAF09150A1F0FF0FBB1F661F771F881F75
:100DB800C2F70EC0BA0F621F731F841F48F48795CD
:100DC80077956795B795F7959E3F08F0B0CF9395BF
:0E0DD800880F08F09927EE0F979587950895DC
:100DE600DF93CF931F930F939A9DF02D219FF00DC4
:100DF6008B9DF00D8A9DE02DF10D039FF00D029F56
:100E0600E00DF11D4E9DE00DF11D5E9DF00D4F9D17
:100E1600F00D7F936F93BF92AF925F934F93D5017F
:100E26000E943E098B01AC01D7010E943E09EB01ED
:100E3600E80FF91FD6010E9488092F913F91D6012C
:100E46000E943E09C60FD71FE81FF91FAF91BF9139
:100E56000E9488092F913F910E943E09C60FD71F15
:100E6600E81FF91FD6010E943E09E60FF71F9801F9
:100E7600BE01CF0111240F911F91CF91DF910895EB
:100E86009091050990FFFCCF90E0880F991F816033
:100E960080930709809105098823E4F7E0E0F9E0EB
:100EA600408582E08483809105098823E4F7E0E0A9
:100EB600F9E0908582E08483809105098823E4F730
:100EC600E0E0F9E0208587E0848384818360848381
:100ED60050E060E070E0BA0155274427892F90E082
:100EE600A0E0B0E0BA2FA92F982F8827842B952B46
:0C0EF600A62BB72BBC01CD01622B089588
:100F0200E894F92F96EBFF2381F0121613061406CC
:100F1200440B9395F695879577956795579540403D
:100F2200FF23B9F71BC099270895882351F49850DD
:100F3200D2F7872B762F652F542F432F322F20E0A5
:100F4200B1F3121613061406440B88233AF09A954D
:100F5200440F551F661F771F881FCAF755234AF48F
:100F6200440F551F11F460FF04C06F5F7F4F8F4F16
:0C0F72009F4F880F9695879597F908957A
:100F7E009091050990FFFCCF282F220F209307098F
:100F8E009091050996FFFCCF609308099091050991
:100F9E0096FFFCCFE0E0F9E094819160948390E0BD
:100FAE00880F991F81608783809105098823E4F754
:100FBE00E0E0F9E0908584818160848327838091CD
:100FCE00050986FFFCCF609308098091050986FF0D
:100FDE00FCCF909308098091050986FFFCCFE0E0D5
:0A0FEE00F9E0848183608483089594
:100FF800E89409C097FB3EF49095809570956195AB
:101008007F4F8F4F9F4F9923A9F0F92F96E9BB2760
:101018009395F695879577956795B795F111F8CFDC
:10102800FAF4BB0F11F460FF1BC06F5F7F4F8F4F47
:101038009F4F16C0882311F096E911C0772321F03D
:101048009EE8872F762F05C0662371F096E8862FD5
:1010580070E060E02AF09A95660F771F881FDAF72C
:0A106800880F9695879597F9089573
:101072000E94950888F09F5798F0B92F9927B75189
:10108200B0F0E1F0660F771F881F991F1AF0BA952A
:10109200C9F714C0B13091F00E94B809B1E00895C7
:1010A2000C94B809672F782F8827B85F39F0B93FB9
:1010B200CCF3869577956795B395D9F73EF49095DD
:0E10C2008095709561957F4F8F4F9F4F0895D9
:1010D0009091050990FFFCCF90E0880F991F8160E7
:1010E00080930709809105098823E4F7E0E0F9E09F
:1010F000808592E09483909105099923E4F7E0E0DC
:10110000F9E0208597E0948394819360948390E044
:0A111000982F88272078822B08957D
:10111A0057FD9058440F551F59F05F3F71F047959E
:10112A00880F97FB991F61F09F3F79F08795089583
:10113A00121613061406551FF2CF4695F1DF08C0A2
:10114A00161617061806991FF1CF869571056105BF
:04115A000894089558
:10115E00BC0180E090E00E94FC0720E030E04AEF06
:10116E0052E40E94CF0920E030E040E857E30E94AD
:10117E00CF0920E030E040EC50E40E94A3096093D8
:10118E0008407093094080930A4090930B40089555
:10119E0097FB10F8169400080F93083098F008503B
:1011AE00232F342F452F562F672F782F892F902DD1
:1011BE00F4CF0594979587957795679557954795AD
:0C11CE00379527950A95AAF70F91089510
:1011DA000F93083090F0982F872F762F652F542F72
:1011EA00432F322F22270850F4CF220F331F441FD8
:1011FA00551F661F771F881F991F0A95B2F70F910F
:02120A00089545
:10120C009091050990FFFCCF880F8093070980917E
:10121C00050986FFFCCF609308098091050986FFBC
:0E122C00FCCFE0E0F9E08481836084830895C4
:10123A00092E0394000C11F4882352F0BB0F40F4DA
:10124A00BF2B11F460FF04C06F5F7F4F8F4F9F4F1A
:02125A000895F5
:10125C009095809570956095509540953095219519
:10126C003F4F4F4F5F4F6F4F7F4F8F4F9F4F0895A3
:10127C00A29FB001B39FC001A39F700D811D1124CB
:0E128C00911DB29F700D811D1124911D0895BA
:10129A00E0E0F4E080818C608083E0E0F9E016828F
:0A12AA0081E0838382838583089529
:1012B4000024A7FD00942A0F301D401D501D601D01
:0812C400701D801D901D0895AE
:1012CC000024A7FD00942A17300540055005600541
:0812DC007005800590050895DE
:1012E4000E943E09A59F900DB49F900DA49F800D70
:0612F400911D1124089574
:1012FA00EC010E94DB090E94DA09CE010E94DC0996
:06130A00CE010E94D8098B
:101310000E943E09460F571FC81FD91F08F4319677
:0213200008952E
:101322002A0D3B1D4C1D5D1D6E1D7F1D801F911FD3
:0213320008951C
:101334002A193B094C095D096E097F09800B910B41
:0213440008950A
:0E1346005058BB27AA270E948C060C941D0944
:0E13540000240A9416161706180609060895B6
:0E13620000240A9412161306140605060895B8
:0E137000E894BB2766277727CB0197F90895ED
:0C137E0097FB16F40E942E090C948207C5
:0C138A0097F99F6780E870E060E008952C
:081396000E94B3050C941D092F
:08139E000E9422060C941D09B7
:0613A6009FEF80EC0895AA
:0413AC000C9400009D
:0413B0000E94AE00E9
:0213B40008959A
:0213B600089598
:0213B800089596
:00000001FF
