:100000000C94FB000C941A010C941A010C941A0124
:100010000C941A010C941A010C941A010C941A01F4
:100020000C941A010C941A010C941A010C941A01E4
:100030000C941A010C941A010C941A010C941A01D4
:100040000C941A010C941A010C941A010C941A01C4
:100050000C941A010C941A010C941A010C941A01B4
:100060000C941A010C941A010C941A010C941A01A4
:100070000C941A010C941A010C941F080C941A0188
:100080000C941A010C941A010C941A010C941A0184
:100090000C941A010C941A010C941A010C941A0174
:1000A0000C941A010C941A010C941A010C941A0164
:1000B0000C941A010C941A010C941A010C941A0154
:1000C0000C941A010C941A010C941A010C941A0144
:1000D0000C941A010C941A010C941A010C941A0134
:1000E0000C941A010C941A010C941A010C941A0124
:1000F0000C941A016E616E00696E660000407A1001
:10010000F35A00A0724E18090010A5D4E80000E8C8
:100110007648170000E40B54020000CA9A3B000026
:1001200000E1F505000080969800000040420F00B5
:100130000000A08601000000102700000000E80376
:10014000000000006400000000000A000000000041
:100150000100000000002C76D888DC674F0823DF00
:10016000C1DFAE59E1B1B796E5E3E453C63AE651D3
:10017000997696E8E6C28426EB898C9B62ED407CFA
:100180006FFCEFBC9C9F40F2BAA56FA5F490055A96
:100190002AF75C936B6CF9676DC11BFCE0E40D47BB
:1001A000FEF520E6B500D0ED902E030094357705DE
:1001B0000080841E080000204E0A000000C80C3396
:1001C0003333330F986E12831141EF8D2114893B25
:1001D000E65516CFFEE6DB18D1844B381BF77C1DA5
:1001E000901DA4BBE424203284725E228100C9F1F8
:1001F00024ECA1E53D2711241FBECFEFCDBFDFE7E3
:10020000DEBF10E4A0E0B0E4E2E5F4E200E00BBF02
:1002100002C007900D92A632B107D9F720E4A6E2FA
:10022000B0E401C01D92A839B207E1F70E94BD07F2
:100230000C9427120C940000FB0190910509937017
:100240009130D9F7880F809307098091050986FFBF
:10025000FCCF409308098091050986FFFCCF90E010
:1002600008C08191809308098091050986FFFCCF21
:100270009F5F9217B0F3E0E0F9E0848183608483AC
:100280000895DB019091050990FFFCCF982F990FFD
:10029000909307099091050996FFFCCF40930809B8
:1002A0009091050996FFFCCF90E0880F991F81601F
:1002B00080930709809105098823E4F790E014C032
:1002C000809108098D93E92FF0E0422F50E04150D2
:1002D0005109E417F50751F082E0809304098091F9
:1002E00005098823E4F79F5F921750F387E0809316
:1002F00004090895E0E4F4E080818B7F8083E0E0EE
:10030000F9E0168281E0838382838583089590914A
:10031000050993709130D9F7880F80930709809170
:10032000050986FFFCCF609308098091050986FFC7
:10033000FCCF409308098091050986FFFCCFE0E0DF
:10034000F9E084818360848308959091050990FF8A
:10035000FCCF880F809307098091050986FFFCCFA9
:10036000609308098091050986FFFCCFE0E0F9E081
:1003700084818360848308959091050990FFFCCF68
:1003800090E0880F991F816080930709809105098B
:100390008823E4F7E0E0F9E0808592E0948390918F
:1003A00005099923E4F7E0E0F9E0208597E09483DC
:1003B00094819360948390E0982F88272078822BF3
:1003C00008959091050990FFFCCF90E0880F991F48
:1003D000816080930709809105098823E4F7E0E0B4
:1003E000F9E0408582E08483809105098823E4F761
:1003F000E0E0F9E0908582E084838091050988231C
:10040000E4F7E0E0F9E0208587E08483848183607D
:10041000848350E060E070E0BA0155274427892FBB
:1004200090E0A0E0B0E0BA2FA92F982F8827842B66
:10043000952BA62BB72BBC01CD01622B0895E0E0D4
:10044000F4E080818C608083E0E0F9E0168281E056
:1004500083838283858308959091050990FFFCCF63
:10046000282F220F209307099091050996FFFCCFB2
:10047000609308099091050996FFFCCFE0E0F9E050
:1004800094819160948390E0880F991F81608783A5
:10049000809105098823E4F7E0E0F9E09085848104
:1004A0008160848327838091050986FFFCCF609358
:1004B00008098091050986FFFCCF90930809809177
:1004C000050986FFFCCFE0E0F9E084818360848346
:1004D0000895CF92DF92EF92FF92CF93DF939091A6
:1004E000050990FFFCCF982F990F909307099091E1
:1004F000050996FFFCCF609308099091050996FFC6
:10050000FCCFE0E0F9E094819160948390E0880F63
:10051000991F81608783809105098823E4F72FEF75
:1005200083EF91E0215080409040E1F700C000004F
:10053000E0E0F9E0608582E084838091050988230A
:10054000E4F7E0E0F9E0908582E08483809105099A
:100550008823E4F7E0E0F9E0808587E08483848104
:100560008360848370E0762F6627EB01C92B20918E
:100570007F4030918040409181405091824060E0C6
:1005800070E088EC91E40E94A5092AE939E949E183
:100590005EEB0E94950B6B017C01BE0180E090E058
:1005A0000E94B90AA70196010E94A6090E94840A26
:1005B000CB01DF91CF91FF90EF90DF90CF90089526
:1005C0002F923F924F925F926F927F928F929F9263
:1005D000AF92BF92CF92DF92EF92FF920F931F9351
:1005E000CF93DF93CDB7DEB7C454D109CDBFDEBF03
:1005F0006CA77DA78EA79FA7098B1A8BEB8AFC8A15
:10060000CD8ADE8AAF8AB88EA12CB12CBA2CA92C47
:10061000982C882469017A01C818D908EA08FB08CF
:10062000C982DA82EB82FC8226013701770C44080A
:10063000542C32016B960EAD1FAD6B97A02EB12ED0
:10064000C12CD12CE12CF12C00E010E029813A8161
:100650004B815C81642D742D842D942D0E94AD0FEF
:1006600007E10E941F10822E932EA42EB52E950115
:1006700084010053184F2F4F3F4F09871A872B874C
:100680003C87003D1740210531050CF0C9C1A98008
:10069000BA80CB80DC80E42CF42C042D142D2A2D80
:1006A0003B2D4C2D5D2D642D742D842D942D0E9499
:1006B000AD0FA22EB32EC42ED52EE62EF72EE82F88
:1006C000192F01E00E9406100E2F0E943D1001E23A
:1006D0000E941F10298F3A8F4B8F58AB69AB7AABB2
:1006E0008BAB9CABA984BA84CB84DC84DD0CAA08D8
:1006F000BA2C6501AD86BE86CF86D88A29853A8513
:100700004B855C856D85762F862F962F205D374033
:10071000410951096109710981099109722E832EDC
:10072000942E452E562E672E282E392E02E00E943A
:100730000610A22EB32EC42ED52EE62EF72EE82FAD
:10074000192F04E00E9406100E2F0E945210A72CB1
:10075000B82CC92CD42CE52CF62C022D132D0E947C
:100760003D10A22EB32EC42ED52EE62EF72E082F26
:10077000192F272D382D492D542D652D762D822D9D
:10078000932D0E94AD0FF22E032F142F5C8F6D8FCF
:100790007E8F8F8F98A3A0E00E945B105CF4AFE087
:1007A0000E944610F22E032F142F5C8F6D8F7E8FC8
:1007B0008F8F98A32F2D302F412F5C8D6D8D7E8DC7
:1007C0008F8D98A104E00E941F102DAB3EAB4FAB64
:1007D00058AF69AF7AAF8BAF9CAF2C8F3D8F4E8FE8
:1007E0005F8F68A379A38AA39BA3272D382D492D5A
:1007F000542D652D762D822D932D02E00E9406103A
:10080000A22EB32EC42ED52EE62EF72EE82F192FAA
:1008100003E00E9406100E2F0E945210A72CB82C45
:10082000C92CD42CE52CF62C022D132D0E943D1042
:10083000A22EB32EC42ED52EE62EF72E082F192F5A
:10084000272D382D492D542D652D762D822D932D54
:100850000E94AD0FF22E032F142FB52FF62FE72F86
:10086000582E692EA0E00E945B105CF4AFE00E945D
:100870004610F22E032F142FB52FF62FE72F582EE8
:10088000692E2F2D302F412F5B2F6F2F7E2F852D1F
:10089000962D04E00E941F102DAF3EAF4FAF219662
:1008A0005FAF219722966FAF229723967FAF239752
:1008B00024968FAF249725969FAF25972CA33DA311
:1008C0004EA35FA368A779A78AA79BA7C984DA84E8
:1008D000EB84FC8404E2C0160AEFD0060FEFE006BA
:1008E000F0060CF0D8C029853A854B855C856D856E
:1008F000762F862F962F24523A4F4F4F5F4F6F4FD0
:100900007F4F8F4F9F4F622E732E842E952E562E23
:10091000472E382E292E04E00E940610A62CB72C54
:10092000C82CD92CE52CF42C032D122D0E943D103F
:10093000A22EB32EC42ED52EE62EF72E082F192F59
:10094000262D372D482D592D652D742D832D922D53
:100950000E94AD0FA22EB32EC42ED52EE62EF72E5A
:10096000082F192F2DA93EA94FA958AD69AD7AAD11
:100970008BAD9CAD0E943D102C8F3D8F4E8F5F8FB5
:1009800068A379A38AA39BA3262D372D482D592D23
:10099000652D742D832D922D03E00E940610A62C48
:1009A000B72CC82CD92CE52CF42C032D122D0E9429
:1009B0003D10A22EB32EC42ED52EE62EF72E082FD4
:1009C000192F262D372D482D592D652D742D832D4A
:1009D000922D0E94AD0FA22EB32EC42ED52EE62E40
:1009E000F72E082F192F2DAD3EAD4FAD21965FADDF
:1009F000219722966FAD229723967FAD2397249659
:100A00008FAD249725969FAD25970E943D102CA36E
:100A10003DA34EA35FA368A779A78AA79BA73BC066
:100A2000A980BA80CB80DC80E42CF42C042D142D1A
:100A30002A2D3B2D4C2D5D2D642D742D842D942D50
:100A40000E94AD0FA22EB32EC42ED52EE62EF72E69
:100A5000E82F192F02E00E9406100E2F0E943D1071
:100A600006E20E941F10298F3A8F4B8F58AB69AB5B
:100A70007AAB8BAB9CAB1CA21DA21EA21FA218A618
:100A800019A61AA61BA61C8E1D8E1E8E1F8E18A2BE
:100A900019A21AA21BA269857A858B859C850E9462
:100AA000BB0A6B017C01298D3A8D4B8D58A969A930
:100AB0007AA98BA99CA90E94B30A9B01AC01C7012A
:100AC000B6010E94A50920E030E048EC52E40E9403
:100AD000120A60937F40709380408093814090938E
:100AE000824060917F4070918040809181409091E0
:100AF000824020E030E040E052E40E94A50920E07E
:100B000030E040EA50E40E94950B60937F40709380
:100B10008040809381409093824060917F407091AB
:100B20008040809181409091824020E030E040E11F
:100B300051E40E94120A60937F407093804080933A
:100B40008140909382402B893C894901392D40E0B6
:100B500050E060E070E080E090E001E10E9406106B
:100B6000822E932EA42EB52EC62ED72EF82FE92F27
:100B7000AF89B88D29813A814B815C810E94A20F97
:100B80007B018C01689415F815950795F794E79407
:100B90001694D1F72B013C01770C4408542C3201F8
:100BA000282D392D4A2D5B2D6C2D7D2D8F2F9E2FBD
:100BB000AE2CBF2CC02ED12EE42CF42C042D142DE1
:100BC0000E943D10822E932E49875D876B8B7F8B11
:100BD000898F9A8FA988BA88A5012A2D352F40E0E0
:100BE00050E060E070E080E090E000E10E940610DC
:100BF000A22EB32EC42ED52E262E372EF82FE92F57
:100C0000AD89BE8929813A814B815C810E94A20F06
:100C10007B018C01689416F815950795F794E79475
:100C20001694D1F72B013C01770C4408542C320167
:100C30002A2D3B2D4C2D5D2D622D732D8F2F9E2F38
:100C4000AE2CBF2CC02ED12EE42CF42C042D142D50
:100C50000E943D102983398B4D8B5B8FB62FA72FB8
:100C6000F82FE92F282D392D49855D856B897F89DE
:100C7000898D9A8DAC8CBD8CCE8CDF8CE8A0F9A0D0
:100C80000AA11BA10E945210522E632E742E852E93
:100C9000962E472E382E292E298139894D895B8D34
:100CA0006B2F7A2F8F2F9E2FACA0BDA0CEA0DFA0E0
:100CB000E8A4F9A40AA51BA50E945210CCA4DDA4A7
:100CC000EEA4FFA456016701E12CF12C8701A98253
:100CD000BA82CB82DC82ED82FE820F831887A22E3D
:100CE000B32EC42ED52EE62EF72E082F192F2981CC
:100CF0003A814B815C8160E070E080E090E00E948E
:100D0000AD0F05E10E941F10A52CB62CC72CD82CC6
:100D1000E92CF42C032D122D0E9452100FE00E949A
:100D20001F100E94B30A20E030E048EC52E40E9419
:100D3000120A60934E4070934F40809350409093BE
:100D40005140CC5BDF4FCDBFDEBFDF91CF911F9114
:100D50000F91FF90EF90DF90CF90BF90AF909F905A
:100D60008F907F906F905F904F903F902F9008955D
:100D7000BC0180E090E00E94B90A20E030E04AEF38
:100D800052E40E94950B20E030E040E857E30E94D7
:100D9000950B20E030E040EC50E40E94A509609300
:100DA0002E4070932F4080933040909331400895AF
:100DB0009EEF90934404E4E0F4E090819F77908369
:100DC00080934409809143098823E4F7E4E0F4E048
:100DD0008081806880830895E4E4F4E090819160EC
:100DE0009083E4E0F4E090819F77908380934409BE
:100DF000809143098823E4F7E4E0F4E0808180688F
:100E000080830895E1E4F9E0808187608083E0E4F5
:100E1000F9E0808181628083E0E0F4E08081806D90
:100E2000808380818F7D8083E0E4F4E08081816035
:100E3000808308950E9402078FE39CE90197F1F7F0
:100E400000C0000089E30E94D80698E29A95F1F765
:100E500089E30E94D80688E28A95F1F78EE10E9424
:100E6000D80698E29A95F1F785E50E94D80688E2BF
:100E70008A95F1F78CE60E94D80698E29A95F1F7E8
:100E80008FE70E94D80688E28A95F1F78CE00E94ED
:100E9000D80698E29A95F1F781E00E94D80688E298
:100EA0008A95F1F786E00E94D80698E29A95F1F7C4
:100EB0000895CF9380E80E94D80688E28A95F1F7DA
:100EC000C0E00BC0EC2FF0E0E55CFF4B80810E949E
:100ED000EC0688E28A95F1F7CF5FC03198F380E99C
:100EE0000E94D80688E28A95F1F7C0E00BC0EC2F8B
:100EF000F0E0E05AFF4B80810E94EC0688E28A9580
:100F0000F1F7CF5FC03198F380EA0E94D80688E2FB
:100F10008A95F1F7C0E00BC0EC2FF0E0E957FF4BEA
:100F200080810E94EC0688E28A95F1F7CF5FC0319C
:100F300098F3CF91089580E007C0E82FF0E0E55CDA
:100F4000FF4B90E290838F5F8031B8F380E007C061
:100F5000E82FF0E0E05AFF4B90E290838F5F803102
:100F6000B8F380E007C0E82FF0E0E957FF4B90E2CC
:100F700090838F5F8031B8F308950E941A070E9412
:100F80009B070E9459070E947A0182E080934904DE
:100F9000C3E0C09352040E941F026EE186E70E94E4
:100FA000A5016EEF80E40E94A501E3E7F0E4108262
:100FB0008AE081838FE082831382C48385E0858306
:100FC00024E040E0BF0188E60E941C0145E06EE09D
:100FD00088E60E94870140E867E088E60E94870172
:100FE00040E868E088E60E94870140E869E088E61A
:100FF0000E94870140E86AE088E60E94870140E895
:101000006FE088E60E9487017894FFCF99E8899F76
:10101000212D11242295269527703CE3239F8019CA
:10102000112480937140699F812D112482958695AA
:101030008770839F601911246093724008951F92F6
:101040000F920FB60F9211240BB60F928F929F92B0
:10105000AF92BF92CF92DF92EF92FF920F931F93C6
:101060002F933F934F935F936F937F938F939F93B0
:10107000AF93BF93CF93DF93EF93FF93F89462EA1C
:1010800086E70E94A50140912D4060917A4086E755
:101090000E94BC01809328409093294064EA86E72F
:1010A0000E94A50140912D4060917A4086E70E9400
:1010B000BC0180934C4090934D4066EA86E70E94C5
:1010C000A50140912D4060917A4086E70E94BC01C5
:1010D000809332409093334068EA86E70E94A501EE
:1010E00040912D4060917A4086E70E94BC01809338
:1010F0007D4090937E4068EA86E70E94A50140917A
:101100002D4060917A4086E70E94BC0180937B402D
:1011100090937C406CEA86E70E94A50140912D40A7
:1011200060917A4086E70E94BC018093554090937D
:10113000564068E486E70E94A5018FE19EE401978E
:10114000F1F700C0000060E086E70E94A501E2E53B
:10115000F0E420814181628186E70E94E101609391
:10116000834070938440809385409093864068E5E7
:1011700086E70E94A5018FE19EE40197F1F700C088
:10118000000060E086E70E94A501EAE2F0E4208129
:101190004181628186E70E94E1016093574070932C
:1011A00058408093594090935A40E0915540F091B7
:1011B000564080907B4090907C40A0907D40B090C5
:1011C0007E40C0903240D0903340E0904C40F09050
:1011D0004D40009128401091294020915740309176
:1011E00058404091594050915A40609183407091CD
:1011F00084408091854090918640FF93EF930E94B8
:10120000E00267EE80E40E942C02EBE5F0E400814E
:101210002181428165EE80E40E946902809326402C
:101220009093274080912640909127400E94B806D5
:1012300023E040E064E370E488E60E944101C4E3F7
:10124000D0E4688189810E940608E3E7F0E43481F4
:101250002581909171408A811F923F931F922F9315
:101260001F929F931F928F9380E090E49F938F93A0
:101270008BE390E49F938F930E94A01140912E40A6
:1012800050912F40609130407091314080917F406B
:1012900090918040A0918140B09182407F936F9364
:1012A0005F934F93BF93AF939F938F938DE090E4A1
:1012B0009F938F9380E690E49F938F930E94A01159
:1012C00080914E4090914F40A0915040B09151403C
:1012D000BF93AF939F938F938CE190E49F938F93F1
:1012E00087E890E49F938F930E94A0118DB79EB7DB
:1012F00082968DBF9EBF0E94590740E86FE088E646
:101300000E94870182E0809349047894FF91EF91D5
:10131000DF91CF91BF91AF919F918F917F916F910D
:101320005F914F913F912F911F910F91FF90EF90FF
:10133000DF90CF90BF90AF909F908F900F900BBE9B
:101340000F900FBE0F901F9018955058BB27AA27DB
:101350000E94BD090C945B0B0E944D0B38F00E945B
:10136000540B20F039F49F3F19F426F40C943A0BF7
:101370000EF4E095E7FB0C94340BE92F0E946C0B04
:1013800058F3BA17620773078407950720F079F4BA
:10139000A6F50C948E0B0EF4E0950B2EBA2FA02D13
:1013A0000B01B90190010C01CA01A0011124FF2712
:1013B000591B99F0593F50F4503E68F11A16F0400D
:1013C000A22F232F342F4427585FF3CF469537950C
:1013D0002795A795F0405395C9F77EF41F16BA0BD1
:1013E000620B730B840BBAF09150A1F0FF0FBB1F7F
:1013F000661F771F881FC2F70EC0BA0F621F731FC8
:10140000841F48F4879577956795B795F7959E3F24
:1014100008F0B0CF9395880F08F09927EE0F9795B5
:10142000879508950E94260A0C945B0B0E94540B2A
:1014300058F00E944D0B40F029F45F3F29F00C94C6
:10144000340B51110C948F0B0C943A0B0E946C0BC3
:1014500068F39923B1F3552391F3951B550BBB27E3
:10146000AA2762177307840738F09F5F5F4F220F28
:10147000331F441FAA1FA9F335D00E2E3AF0E0E81F
:1014800032D091505040E695001CCAF72BD0FE2F69
:1014900029D0660F771F881FBB1F261737074807FD
:1014A000AB07B0E809F0BB0B802DBF01FF279358B5
:1014B0005F4F3AF09E3F510578F00C94340B0C943A
:1014C0008F0B5F3FE4F3983ED4F38695779567954D
:1014D000B795F7959F5FC9F7880F911D96958795EA
:1014E00097F90895E1E0660F771F881FBB1F621709
:1014F00073078407BA0720F0621B730B840BBA0BC7
:10150000EE1F88F7E09508950E94740B88F09F57AE
:1015100098F0B92F9927B751B0F0E1F0660F771F17
:10152000881F991F1AF0BA95C9F714C0B13091F00D
:101530000E948E0BB1E008950C948E0B672F782FCC
:101540008827B85F39F0B93FCCF3869577956795D2
:10155000B395D9F73EF490958095709561957F4F3E
:101560008F4F9F4F089597FB16F40E943D0B0C94EC
:10157000F70AE89409C097FB3EF490958095709522
:1015800061957F4F8F4F9F4F9923A9F0F92F96E9CF
:10159000BB279395F695879577956795B795F11144
:1015A000F8CFFAF4BB0F11F460FF1BC06F5F7F4FE1
:1015B0008F4F9F4F16C0882311F096E911C07723F3
:1015C00021F09EE8872F762F05C0662371F096E8FC
:1015D000862F70E060E02AF09A95660F771F881FCB
:1015E000DAF7880F9695879597F90895E894F92F7B
:1015F00096EBFF2381F0121613061406440B939505
:10160000F69587957795679557954040FF23B9F7ED
:101610001BC099270895882351F49850D2F7872B3F
:10162000762F652F542F432F322F20E0B1F312165F
:1016300013061406440B88233AF09A95440F551F5D
:10164000661F771F881FCAF755234AF4440F551F9A
:1016500011F460FF04C06F5F7F4F8F4F9F4F880F63
:101660009695879597F9089597F99F6780E870E0B8
:1016700060E008959FEF80EC0895909580957095B7
:10168000609550954095309521953F4F4F4F5F4F56
:101690006F4F7F4F8F4F9F4F089500240A94161667
:1016A000170618060906089500240A941216130650
:1016B000140605060895092E0394000C11F48823DE
:1016C00052F0BB0F40F4BF2B11F460FF04C06F5FFA
:1016D0007F4F8F4F9F4F089557FD9058440F551FD0
:1016E00059F05F3F71F04795880F97FB991F61F0A4
:1016F0009F3F79F087950895121613061406551F1B
:10170000F2CF4695F1DF08C0161617061806991F86
:10171000F1CF86957105610508940895E894BB277B
:1017200066277727CB0197F908950E94A80B0C94A0
:101730005B0B0E944D0B38F00E94540B20F0952358
:1017400011F00C94340B0C943A0B11240C948F0B65
:101750000E946C0B70F3959FC1F3950F50E0551FDD
:10176000629FF001729FBB27F00DB11D639FAA27F6
:10177000F00DB11DAA1F649F6627B00DA11D661F45
:10178000829F2227B00DA11D621F739FB00DA11D66
:10179000621F839FA00D611D221F749F3327A00D20
:1017A000611D231F849F600D211D822F762F6A2FBC
:1017B00011249F5750409AF0F1F088234AF0EE0F21
:1017C000FF1FBB1F661F771F881F91505040A9F74E
:1017D0009E3F510580F00C94340B0C948F0B5F3FAF
:1017E000E4F3983ED4F3869577956795B795F7958A
:1017F000E7959F5FC1F7FE2B880F911D9695879502
:1018000097F908952F923F924F925F926F927F9235
:101810008F929F92AF92BF92CF92DF92EF92FF9200
:101820000F931F93CF93DF93CDB7DEB76097CDBFF4
:10183000DEBF7C011B016A01FC01168217828381D5
:1018400081FF44C39E012F5F3F4F3901F701938110
:10185000F10193FD859193FF81911F01882309F484
:1018600031C3853239F493FD859193FF81911F0136
:10187000853239F4B70190E00E9464115601650188
:10188000E5CF10E0512C912CFFE1F915D8F08B3207
:1018900079F038F4803279F08332A1F4F92DF061D7
:1018A0002EC08D3261F0803369F4292D21602DC066
:1018B000392D3260932E892D8460982E2AC0E92D0F
:1018C000E86015C097FC2DC020ED280F2A3088F461
:1018D00096FE06C03AE0139F200D1124122F19C066
:1018E0008AE0589E200D1124522EE92DE0629E2E92
:1018F00010C08E3231F496FCE5C2F92DF0649F2EB3
:1019000008C08C3621F4292D2068922E02C088361A
:1019100041F4F10193FD859193FF81911F018111A4
:10192000B3CF9BEB980F933020F4992D9061805E9C
:1019300007C09BE9980F933008F066C1992D9F7EF0
:1019400096FF16E09F73992E853619F49064992EB0
:1019500008C0863621F4392F3068932E02C0111149
:10196000115097FE07C01C3350F444244394410E99
:1019700027E00BC0183038F027E017E005C027E05B
:101980009CE3492E02C0212F412C560184E0A80E71
:10199000B11CF6016081718182819381042DA301C4
:1019A0000E9476106C01F981FC87F0FF02C0F3FF02
:1019B00006C091FC06C092FE06C000E205C00DE222
:1019C00003C00BE201C000E08C858C7019F001119E
:1019D0005AC29BC297FE10C04C0CFC85F4FF04C099
:1019E0008A81813309F44A94141474F528E024158B
:1019F00078F588E0482E2CC096FC2AC0812F90E014
:101A00008C159D059CF03CEFC3163FEFD30674F098
:101A1000892D8068982E0AC0E2E0F0E0EC0FFD1FEF
:101A2000E10FF11D8081803319F411501111F4CFB1
:101A300097FE0EC044244394410E812F90E0C816B7
:101A4000D9062CF41C1904C04424439401C010E0AE
:101A500097FE06C01C141D0434F4C601019605C08F
:101A600085E090E002C081E090E001110196112331
:101A700031F0212F30E02F5F3F4F820F931F252D34
:101A800030E08217930714F4581A01C0512C892DA5
:101A9000897049F4552039F0B70180E290E00E9446
:101AA00064115A94F7CF002329F0B701802F90E0FA
:101AB0000E94641193FC09C0552039F0B70180E3FE
:101AC00090E00E9464115A94F7CF97FE4CC04601F3
:101AD000D7FE02C0812C912CC60188199909F30107
:101AE000E80FF91FED87FE879601241931092F872A
:101AF000388B012F10E01195019511093FEF8316E6
:101B0000930629F4B7018EE290E00E946411C81494
:101B1000D9044CF08F8598898815990524F4ED85B2
:101B2000FE85818101C080E3F1E08F1A91082D8547
:101B30003E852F5F3F4F2D873E87801691062CF004
:101B4000B70190E00E946411D9CFC814D90441F4C0
:101B50009A81963320F4953319F43C8534FF81E360
:101B6000B70190E04EC08A81813319F09C859F7E39
:101B70009C87B70190E00E946411111105C094FC8C
:101B800018C085E690E017C0B7018EE290E00E9491
:101B900064111E5F82E001E0080FF301E80FF11D00
:101BA0008081B70190E00E946411802F0113F3CF70
:101BB000E6CF85E490E0B7010E946411D7FC06C02F
:101BC000C114D10441F4EC85E4FF05C0D194C19463
:101BD000D1088DE201C08BE2B70190E00E94641150
:101BE00080E32AE0C216D1042CF08F5FFAE0CF1A0E
:101BF000D108F7CFB70190E00E946411B701C60188
:101C0000C0960E94641154C1833631F0833779F055
:101C1000833509F056C020C0560132E0A30EB11C36
:101C2000F6018081898301E010E0630112C0560152
:101C3000F2E0AF0EB11CF601C080D18096FE03C069
:101C4000612F70E002C06FEF7FEFC6010E94591153
:101C50008C01F92DFF7714C0560122E0A20EB11CB1
:101C6000F601C080D18096FE03C0612F70E002C0F3
:101C70006FEF7FEFC6010E944E118C01F92DF068C5
:101C80009F2EF3FD1AC0852D90E008171907A8F4C0
:101C9000B70180E290E00E9464115A94F4CFF601FB
:101CA00097FC859197FE81916F01B70190E00E94AA
:101CB000641151105A94015011090115110579F759
:101CC000F7C0843611F0893661F5560197FE09C0D8
:101CD00024E0A20EB11CF6016081718182819381A2
:101CE0000AC0F2E0AF0EB11CF60160817181072ECF
:101CF000000C880B990BF92DFF769F2E97FF09C0DA
:101D000090958095709561957F4F8F4F9F4FF068AC
:101D10009F2E2AE030E0A3010E94C911C82EC618E8
:101D20003FC0092D853721F40F7E2AE030E01DC029
:101D3000097F8F3691F018F4883559F0C3C0803789
:101D400019F0883711F0BEC0006104FF09C00460BB
:101D500007C094FE08C0066006C028E030E005C059
:101D600020E130E002C020E132E0560107FF09C067
:101D700084E0A80EB11CF60160817181828193819B
:101D800008C0F2E0AF0EB11CF6016081718180E005
:101D900090E0A3010E94C911C82EC6180F77902E9B
:101DA00096FE0BC0092D0E7FC11650F494FE0AC09A
:101DB00092FC08C0092D0E7E05C0DC2C092D03C045
:101DC000DC2C01C0D12E04FF0DC0FE01EC0DF11D75
:101DD0008081803311F4097E09C002FF06C0D394CC
:101DE000D39404C0802F867809F0D39403FD11C0EA
:101DF00000FF06C01C2DD51480F4150D1D190DC053
:101E0000D51458F4B70180E290E00E946411D39495
:101E1000F7CFD51410F45D1801C0512C04FF10C089
:101E2000B70180E390E00E94641102FF17C001FD3A
:101E300003C088E790E002C088E590E0B7010CC0DD
:101E4000802F867859F001FF02C08BE201C080E24A
:101E500007FD8DE2B70190E00E946411C11638F4CD
:101E6000B70180E390E00E9464111150F7CFCA944B
:101E7000F301EC0DF11D8081B70190E00E94641127
:101E8000C110F5CF15C0F4E0F51560F584E0581ADF
:101E900093FE1FC0011127C02C8523FF2AC004EF29
:101EA00010E0392D3071932EF8018491811124C0F6
:101EB000552009F4E4CCB70180E290E00E9464115F
:101EC0005A94F6CFF7018681978126C08FEF9FEF56
:101ED00023C0B70180E290E00E9464115A9451102F
:101EE000F8CFD8CF512CB701802F90E00E94641119
:101EF000D3CF08EF10E0D5CF91108052B70190E01A
:101F00000E9464110F5F1F4FCFCF23E0251510F4FF
:101F100083E0BDCF512CC0CF6096CDBFDEBFDF9137
:101F2000CF911F910F91FF90EF90DF90CF90BF90D6
:101F3000AF909F908F907F906F905F904F903F9069
:101F40002F9008950E946710A59F900DB49F900D4B
:101F5000A49F800D911D11240895DF93CF931F93AB
:101F60000F939A9DF02D219FF00D8B9DF00D8A9D72
:101F7000E02DF10D039FF00D029FE00DF11D4E9D30
:101F8000E00DF11D5E9DF00D4F9DF00D7F936F9361
:101F9000BF92AF925F934F93D5010E9467108B0160
:101FA000AC01D7010E946710EB01E80FF91FD601C1
:101FB0000E94FD0F2F913F91D6010E946710C60F1E
:101FC000D71FE81FF91FAF91BF910E94FD0F2F91FE
:101FD0003F910E946710C60FD71FE81FF91FD60157
:101FE0000E946710E60FF71F9801BE01CF01112470
:101FF0000F911F91CF91DF9108950E946710460FB6
:10200000571FC81FD91F08F4319608950F93083041
:1020100090F0982F872F762F652F542F432F322F34
:1020200022270850F4CF220F331F441F551F661F6D
:10203000771F881F991F0A95B2F70F91089597FB94
:1020400010F8169400080F93083098F00850232FCA
:10205000342F452F562F672F782F892F902DF4CFAF
:1020600005949795879577956795579547953795F3
:1020700027950A95AAF70F9108952A0D3B1D4C1D2F
:102080005D1D6E1D7F1D801F911F08950024A7FDFB
:1020900000942A0F301D401D501D601D701D801DB5
:1020A000901D08952A193B094C095D096E097F09A5
:1020B000800B910B08950024A7FD00942A1730058A
:1020C0004005500560057005800590050895A29FA4
:1020D000B001B39FC001A39F700D811D1124911DFC
:1020E000B29F700D811D1124911D0895283008F0B4
:1020F00027E03327DA01990F311D87FD91600096A3
:102100006105710539F432602E5F3D9330E32A9505
:10211000E1F708959F3F30F080387105610509F0BF
:102120003C5F3C5F3D93913008F08068911DDF93E8
:10213000CF931F930F93FF92EF92192F987F96954D
:10214000E92F96959695E90FFF27EA5AFE4F9927B2
:102150003327EE24FF24A701E70105900894079494
:1021600028F4360FE71EF81E491F511D660F771F12
:10217000881F991F0694A1F70590079428F4E70E8D
:10218000F81E491F561FC11D770F881F991F661F14
:102190000694A1F70590079428F4F80E491F561FDE
:1021A000C71FD11D880F991F661F771F0694A1F7BF
:1021B0000590079420F4490F561FC71FD81F990F89
:1021C000661F771F881F0694A9F7849110951770D2
:1021D00041F0D695C79557954795F794E7941A958A
:1021E000C1F7ECEFF0E06894159015913591659189
:1021F000959105907FE27395E118F10A430B560B18
:10220000C90BD009C0F7E10CF11E431F561FC91FAF
:10221000D01D7EF4703311F48A95E6CFE894015016
:1022200030F0080F0AF40027021708F4202F239536
:10223000022F7A3328F079E37D932A95E9F710C0CD
:102240007D932A9589F60694979567953795179506
:102250001794E118F10A430B560BC90BD00998F0FB
:1022600023957E9173957A3308F070E37C93201365
:10227000B8F77E9170617D9330F0839571E37D9323
:1022800070E32A95E1F71124EF90FF900F911F91D1
:10229000CF91DF91992787FD90950895FC010590D6
:1022A000615070400110D8F7809590958E0F9F1F58
:1022B0000895FC016150704001900110D8F780959D
:1022C00090958E0F9F1F08950F931F93CF93DF93C9
:1022D000FB01238121FD03C08FEF9FEF2CC022FF64
:1022E00016C046815781248135814217530744F433
:1022F000A081B1819D012F5F3F4F208331838C935B
:10230000268137812F5F3F4F2683378314C08B018F
:10231000EC01FB010084F185E02D0995892BE1F6A4
:10232000D80116968D919C911797019616968D93CC
:102330009C931797CE01DF91CF911F910F91089534
:102340000F931F93CF93DF93CDB7DEB72E97CDBFFB
:10235000DEBF0D891E8986E08C8309831A838FEF87
:102360009FE78D839E83AE01475E5F4F6F89788DB7
:10237000CE0101960E94020CEF81F885E00FF11F5B
:1023800010822E96CDBFDEBFDF91CF911F910F91AE
:102390000895FA01AA27283051F1203181F1E894FB
:1023A0006F936E7F6E5F7F4F8F4F9F4FAF4FB1E048
:1023B0003ED0B4E03CD0670F781F891F9A1FA11D43
:1023C000680F791F8A1F911DA11D6A0F711D811D44
:1023D000911DA11D20D009F468943F912AE0269F09
:1023E00011243019305D3193DEF6CF010895462F68
:1023F0004770405D4193B3E00FD0C9F7F6CF462F49
:102400004F70405D4A3318F0495D31FD40524193B1
:1024100002D0A9F7EACFB4E0A6959795879577956E
:102420006795BA95C9F700976105710508959B01F5
:10243000AC010A2E06945795479537952795BA957E
:10244000C9F7620F731F841F951FA01D0895F8948C
:02245000FFCFBC
:1024520025643A25642C2025642F256400252E311D
:1024620066432C2020252E3166252500252E316637
:062472006D6261720000C2
:00000001FF
