S02600004D53383630375F77726974655F726561645F766572696669636174696F6E2E73726563A2
S11300000C947A000C948C000C948C000C948C004E
S11300100C948C000C948C000C948C000C948C002C
S11300200C948C000C948C000C948C000C948C001C
S11300300C948C000C948C000C948C000C948C000C
S11300400C948C000C948C000C948C000C948C00FC
S11300500C948C000C948C000C948C000C948C00EC
S11300600C948C000C948C000C948C000C948C00DC
S11300700C948C000C948C000C948C000C948C00CC
S11300800C948C000C948C000C948C000C948C00BC
S11300900C948C000C948C000C948C000C948C00AC
S11300A00C948C000C948C000C948C000C948C009C
S11300B00C948C000C948C000C948C000C948C008C
S11300C00C948C000C948C000C948C000C948C007C
S11300D00C948C000C948C000C948C000C948C006C
S11300E00C948C000C948C000C948C000C948C005C
S11300F00C948C0011241FBECFEFCDBFDFE7DEBF11
S113010020E4A0E0B0E401C01D92AD30B207E1F7F5
S11301100E9470010C94C3010C9400009091050995
S113012090FFFCCF880F809307098091050986FF13
S1130130FCCF609308098091050986FFFCCFE0E0BD
S1130140F9E084818360848308959091050990FF88
S1130150FCCF90E0880F991F8160809307098091FC
S113016005098823E4F7E0E0F9E0808592E09483D0
S1130170909105099923E4F7E0E0F9E0208597E000
S1130180948394819360948390E0982F88272078B7
S1130190822B08959091050990FFFCCF90E0880F81
S11301A0991F816080930709809105098823E4F7EA
S11301B0E0E0F9E0808582E084838091050988236A
S11301C0E4F7E0E0F9E0808582E08483809105092A
S11301D08823E4F7E0E0F9E0808587E08483848184
S11301E0836084830895E0E0F4E080818C60808300
S11301F0E0E0F9E0168281E08383828385830895B9
S11302009091050990FFFCCF282F220F2093070916
S11302109091050996FFFCCF609308099091050918
S113022096FFFCCFE0E0F9E094819160948390E044
S1130230880F991F81608783809105098823E4F7DB
S1130240E0E0F9E090858481816084832783809154
S1130250050986FFFCCF609308098091050986FF94
S1130260FCCF909308098091050986FFFCCFE0E05C
S1130270F9E084818360848308959091050990FF57
S1130280FCCF982F990F909307099091050996FF39
S1130290FCCF609308099091050996FFFCCFE0E03C
S11302A0F9E094819160948390E0880F991F8160B4
S11302B087838091050986FFFCCF8091080980918E
S11302C0050986FFFCCF809108098091050986FF06
S11302D0FCCFE0E0F9E08085848183608483089525
S11302E00E94F3006EE186E70E948E006EEF80E4C8
S11302F00E948E0066EA86E70E948E0040910340C9
S113030060910C4086E70E94A50080930A40909378
S11303100B4068E486E70E948E008FE19EE401971B
S1130320F1F700C0000060E086E70E948E00E4E080
S1130330F0E420814181628186E70E94CA0068E579
S113034086E70E948E008FE19EE40197F1F700C0DA
S1130350000060E086E70E948E00E0E0F0E4208187
S11303604181628186E70E94CA0067EE80E40E94B0
S11303700001E7E0F0E400812181428165EF80E43F
S10D03800E943D01B7CFF894FFCFAF
S9030000FC
